S023000045696E646F706472616368744D6963726F436F6E74726F6C6C65722E737265630E
S113000045C0000058C0000056C0000054C00000A5
S113001052C0000050C000004EC000004CC00000A0
S11300204AC0000048C0000046C0000044C00000B0
S113003042C0000040C000003EC000003CC00000C0
S11300403AC0000038C0000036C0000034C00000D0
S113005032C0000030C000002EC000002CC00000E0
S11300602AC0000028C0000026C0000024C00000F0
S113007022C0000020C000001EC000001CC0000000
S11300801AC0000018C0000016C0000011241FBED2
S1130090CFEFD0E1DEBFCDBF12E0A0E0B1E0EAEBEC
S11300A0F2E000E00BBF02C007900D92A030B10750
S11300B0D9F7E6D000C1A4CFEF92FF920F931F931C
S11300C0CF93DF93C0E4D1E000EC11E00F2EF0E811
S11300D0EF2EF1E0FF2EF02D6991F80181918F014F
S11300E0A2D08FE090E0B0D0CE15DF05A9F7DF9164
S11300F0CF911F910F91FF90EF900895EF92FF928F
S11301000F931F93CF93DF93C0E0D1E000E811E099
S11301100F2EF0E4EF2EF1E0FF2EF02D6991F8019F
S113012081918F0180D08FE090E08ED0CE15DF05D5
S1130130A9F7DF91CF911F910F91FF90EF90089550
S1130140EF92FF920F931F93CF93DF93C1E4D1E01B
S113015001EC11E00F2EF1E0EF2EF1E0FF2EF02D77
S11301606A91F80182918F015ED08FE090E06CD0AB
S1130170CE15DF05A9F7DF91CF911F910F91FF9065
S1130180EF9008950F931F93CF93DF93C0ECD1E0CA
S113019008EC11E060E0899146D080E090E054D012
S11301A0C017D107B9F7DF91CF911F910F9108952F
S11301B084EA80937400E4E7F0E080818823ECF71C
S11301C008958093730084E880937400E4E7F0E07A
S11301D080818823ECF708951F93CF93DF931092C7
S11301E0710080E480937000E3DF80EEEADF81E257
S11301F0E8DFC4E7D0E014E91883DADF80EEE1DF5A
S113020080EADFDF1883D4DF80EEDBDF83EED9DF23
S11302101883CEDF80EED5DF81E8D3DF1883DF914A
S1130220CF911F910895CF93DF93D82FC62FC0DFAE
S113023080EEC7DF8D2FC5DF8C2FC3DF84E9809369
S11302407400DF91CF910895181619066CF420E01C
S113025030E0EFECF7E03197F1F700C000002F5FDA
S11302603F4F82179307A9F70895B6DF8FEF8ABB34
S11302708AB7806C8ABF89B7806889BF78940895EB
S1130280F4DF84EF91E0E0DF7DDF16DF84E190E0CE
S1130290DBDF78DF84E190E0D7DF30DF84E190E0DA
S11302A0D3DF70DF84E190E0CFDF4ADF84E190E0C8
S10D02B0CBDF68DFEACFF894FFCF3C
S11302BA4040202010100808101008080404020204
S11302CA0404020201018080010180804040202050
S11302DA40402020101008081010080804040202E4
S11302EA0404020201018080010180804040202030
S11302FA40404040404040406070787C7E7FFFC070
S113030AC0C0C0C0C0C0C1C3C7CFDFFFE0E0E0E0E7
S113031AE0E0F0F8FCFEFFE1E1E1E1E1E3E7EFFF11
S113032AF1F1F1F1F9FDFFF3F3F3F7FFFBFBFFFF43
S113033A00020406080A0C0E00020406080A0C0E3F
S113034A00020406080A0C0E00020406080A0C0E2F
S113035A00020406080A0C0E00020406080A0C0E1F
S113036A00020406080A0C0E00020406080A0C0E0F
S113037A00020406080A0C0E0E0E0E0E0E0E0E0CC9
S113038A0A0806040200000000000000020406082D
S113039A0A0C0C0C0C0C0C0A0806040202020202D7
S11303AA0406080A0A0A0A080604040406080806CF
S9030000FC
