:1000000045C0000058C0000056C0000054C00000A9
:1000100052C0000050C000004EC000004CC00000A4
:100020004AC0000048C0000046C0000044C00000B4
:1000300042C0000040C000003EC000003CC00000C4
:100040003AC0000038C0000036C0000034C00000D4
:1000500032C0000030C000002EC000002CC00000E4
:100060002AC0000028C0000026C0000024C00000F4
:1000700022C0000020C000001EC000001CC0000004
:100080001AC0000018C0000016C0000011241FBED6
:10009000CFEFD0E1DEBFCDBF11E0A0E0B1E0E2EAFA
:1000A000F2E000E00BBF02C007900D92A038B1074C
:1000B000D9F7EAD0F4C0A4CFCF92DF92EF92FF92AB
:1000C0000F931F93CF93DF9300E011E00F2EF0E426
:1000D000EF2EF1E0FF2EF02D0F2EF0E4CF2EF1E009
:1000E000DF2EF02D12C0F8016081F70180819FD0D2
:1000F00080E090E0ADD02197B1F70F5F1F4FFFEF89
:10010000EF1AFF0A0C151D0519F0C1E4D0E0EBCF82
:10011000DF91CF911F910F91FF90EF90DF90CF90E3
:100120000895CF92DF92EF92FF920F931F93CF9398
:10013000DF9300E411E00F2EF0E8EF2EF1E0FF2E48
:10014000F02D0F2EF0E0CF2EF1E0DF2EF02D12C0BB
:10015000F8016081F70180816AD080E090E078D07A
:100160002197B1F701501109F1E0EF1AF1080C15D0
:100170001D0519F0C0E4D0E0EBCFDF91CF911F91C6
:100180000F91FF90EF90DF90CF9008950F931F9302
:10019000CF93DF93C0E4D1E000E811E060E0899103
:1001A00046D080E090E054D0C017D107B9F7DF9176
:1001B000CF911F910F91089584EA80937400E4E732
:1001C000F0E080818823ECF708958093730084E841
:1001D00080937400E4E7F0E080818823ECF70895D1
:1001E0001F93CF93DF931092710080E4809370008F
:1001F000E3DF80EEEADF81E2E8DFC4E7D0E014E984
:100200001883DADF80EEE1DF80EADFDF1883D4DFF6
:1002100080EEDBDF83EED9DF1883CEDF80EED5DF23
:1002200081E8D3DF1883DF91CF911F910895CF9399
:10023000DF93D82FC62FC0DF80EEC7DF8D2FC5DF3D
:100240008C2FC3DF84E980937400DF91CF910895F0
:10025000181619066CF420E030E0EFECF7E0319767
:10026000F1F700C000002F5F3F4F82179307A9F7F7
:100270000895B6DF8FEF8ABB8AB7806C8ABF89B7D3
:10028000806889BF78940895F4DF84EF91E0E0DF1F
:100290007DDF12DF7BDF45DF80E090E00895F8949A
:0202A000FFCF8E
:1002A20040404040404040406070787C7E7FFFC0CC
:1002B200C0C0C0C0C0C0C1C3C7CFDFFFE0E0E0E044
:1002C200E0E0F0F8FCFEFFE1E1E1E1E1E3E7EFFF6E
:1002D200F1F1F1F1F9FDFFF3F3F3F7FFFBFBFFFFA0
:1002E20000020406080A0C0E0E0E0E0E0E0E0E0C66
:1002F2000A080604020000000000000002040608CA
:100302000A0C0C0C0C0C0C0A080604020202020273
:100312000406080A0A0A0A0806040404060808066B
:00000001FF
